Microchip MPLAB XC8 Compiler V2.00 ()

Linker command line:

-W-3 --edf=C:\Program Files (x86)\Microchip\xc8\v2.00\pic\dat\en_msgs.txt \
  -cs -h+dist/default/production\Telecommande_P4.X.production.sym \
  --cmf=dist/default/production\Telecommande_P4.X.production.cmf -z \
  -Q18F67J94 -oC:\Users\Sam\AppData\Local\Temp\s2vg.2 \
  --defsym=__MPLAB_BUILD=1 \
  -Mdist/default/production/Telecommande_P4.X.production.map -E1 -ver=XC8 \
  --acfsm=1493 -ASTACK=0A0h-0df9h -pstack=STACK -ACODE=00h-01FFEFh \
  -ACONST=00h-01FFEFh -ASMALLCONST=0E00h-0EFFhx497,01FF00h-01FFEFh \
  -AMEDIUMCONST=0E00h-0FFFFh,010E00h-01FFEFh -ACOMRAM=01h-05Fh \
  -AABS1=00h-0DF9h -ABIGRAM=01h-0DF9h \
  -ARAM=060h-0FFh,0100h-01FFhx12,0D00h-0DF9h -ABANK0=060h-0FFh \
  -ABANK1=0100h-01FFh -ABANK2=0200h-02FFh -ABANK3=0300h-03FFh \
  -ABANK4=0400h-04FFh -ABANK5=0500h-05FFh -ABANK6=0600h-06FFh \
  -ABANK7=0700h-07FFh -ABANK8=0800h-08FFh -ABANK9=0900h-09FFh \
  -ABANK10=0A00h-0AFFh -ABANK11=0B00h-0BFFh -ABANK12=0C00h-0CFFh \
  -ABANK13=0D00h-0DF9h \
  -ASFR=0DFAh-0DFFh,0E00h-0EFFh,0F00h-0F5Fh,0F60h-0FFFh \
  -preset_vec=00h,intcode,intcodelo,powerup,init -pramtop=0E00h \
  -psmallconst=SMALLCONST -pmediumconst=MEDIUMCONST -pconst=CONST \
  -AFARRAM=00h-00h -ACONFIG=01FFF0h-01FFFFh -pconfig=CONFIG \
  -pjflash_buffer=01FBF8h \
  -prdata=COMRAM,nvrram=COMRAM,nvbit=COMRAM,rbss=COMRAM,rbit=COMRAM \
  -pfarbss=FARRAM,fardata=FARRAM,nvFARRAM=FARRAM \
  -pintsave_regs=BIGRAM,bigbss=BIGRAM,bigdata=BIGRAM -pbss=RAM \
  -pidata=CODE,irdata=CODE,ibigdata=CODE,ifardata=CODE -prparam=COMRAM \
  C:\Users\Sam\AppData\Local\Temp\s2vg.o \
  dist/default/production\Telecommande_P4.X.production.o 

Object code version is 3.11

Machine type is 18F67J94

Call graph: (short form)




                Name                               Link     Load   Length Selector   Space Scale
C:\Users\Sam\AppData\Local\Temp\s2vg.o
                init                                  0        0        4        0       0
                config                            1FFF0    1FFF0       10    1FFF0       0
dist/default/production\Telecommande_P4.X.production.o
                smallconst                          E00      E00       58      700       0
                text16                             1CC4     1CC4       56      72C       0
                text15                             1E1A     1E1A       1E      72C       0
                text14                             1DFC     1DFC       1E      72C       0
                text13                             1D1A     1D1A       42      72C       0
                text12                             1B10     1B10       8A      72C       0
                text11                             16A4     16A4      2DE      72C       0
                text10                             1E66     1E66        C      72C       0
                text9                              1C08     1C08       66      72C       0
                text8                              1982     1982       CE      72C       0
                text7                               E58      E58      84C      72C       0
                text6                              1D9C     1D9C       34      72C       0
                text5                              1C6E     1C6E       56      72C       0
                text4                              1D5C     1D5C       40      72C       0
                text3                              1DD0     1DD0       2C      72C       0
                text2                              1E38     1E38       1C      72C       0
                text1                              1B9A     1B9A       6E      72C       0
                text0                              1A50     1A50       C0      72C       0
                cstackCOMRAM                          1        1       5F        1       1
                bssBANK0                             60       60       40       60       1
                cinit                              1E54     1E54       12      72C       0

TOTAL           Name                               Link     Load   Length     Space
        CLASS   STACK          

        CLASS   CODE           
                init                                  0        0        4         0
                text16                             1CC4     1CC4       56         0
                text15                             1E1A     1E1A       1E         0
                text14                             1DFC     1DFC       1E         0
                text13                             1D1A     1D1A       42         0
                text12                             1B10     1B10       8A         0
                text11                             16A4     16A4      2DE         0
                text10                             1E66     1E66        C         0
                text9                              1C08     1C08       66         0
                text8                              1982     1982       CE         0
                text7                               E58      E58      84C         0
                text6                              1D9C     1D9C       34         0
                text5                              1C6E     1C6E       56         0
                text4                              1D5C     1D5C       40         0
                text3                              1DD0     1DD0       2C         0
                text2                              1E38     1E38       1C         0
                text1                              1B9A     1B9A       6E         0
                text0                              1A50     1A50       C0         0
                cinit                              1E54     1E54       12         0

        CLASS   CONST          

        CLASS   SMALLCONST     
                smallconst                          E00      E00       58         0

        CLASS   MEDIUMCONST    

        CLASS   COMRAM         
                cstackCOMRAM                          1        1       5F         1

        CLASS   ABS1           

        CLASS   BIGRAM         

        CLASS   RAM            

        CLASS   BANK0          
                bssBANK0                             60       60       40         1

        CLASS   BANK1          

        CLASS   BANK2          

        CLASS   BANK3          

        CLASS   BANK4          

        CLASS   BANK5          

        CLASS   BANK6          

        CLASS   BANK7          

        CLASS   BANK8          

        CLASS   BANK9          

        CLASS   BANK10         

        CLASS   BANK11         

        CLASS   BANK12         

        CLASS   BANK13         

        CLASS   SFR            

        CLASS   FARRAM         

        CLASS   CONFIG         
                config                            1FFF0    1FFF0       10         0

        CLASS   IDLOC          



SEGMENTS        Name                           Load    Length   Top    Selector   Space  Class

                reset_vec                      000000  000004  000004         0       0  CODE    
                cstackCOMRAM                   000001  00005F  000060         1       1  COMRAM  
                bssBANK0                       000060  000040  0000A0        60       1  BANK0   
                smallconst                     000E00  000058  000E58       700       0  SMALLCON
                text7                          000E58  00101A  001E72       72C       0  CODE    
                config                         01FFF0  000010  020000     1FFF0       0  CONFIG  


UNUSED ADDRESS RANGES

        Name                Unused          Largest block    Delta
        BANK0            000A0-000FF              60
        BANK1            00100-001FF             100
        BANK10           00A00-00AFF             100
        BANK11           00B00-00BFF             100
        BANK12           00C00-00CFF             100
        BANK13           00D00-00DF9              FA
        BANK2            00200-002FF             100
        BANK3            00300-003FF             100
        BANK4            00400-004FF             100
        BANK5            00500-005FF             100
        BANK6            00600-006FF             100
        BANK7            00700-007FF             100
        BANK8            00800-008FF             100
        BANK9            00900-009FF             100
        BIGRAM           000A0-00DF9             D5A
        CODE             00004-00DFF             DFC
                         01E72-1FFEF           1E17E
        CONST            00004-00DFF             DFC
                         01E72-1FFEF           1E17E
        MEDIUMCONST      01E72-0FFFF            E18E
                         10E00-1FFEF            F1F0
        RAM              000A0-00DF9             100
        SFR              00DFA-00FFF             100
        SMALLCONST       01E72-1FFEF             100
        STACK            000A0-00DF9             D5A

                                  Symbol Table

?_LireLigne                     cstackCOMRAM  00001
ActiveColonne@colonne           cstackCOMRAM  00001
AfficherTouche@KeyBoard         cstackCOMRAM  0000B
LectureKeyboard@F11296          bssBANK0      00080
LectureKeyboard@KeyBoard        cstackCOMRAM  00005
LectureKeyboard@colonne         cstackCOMRAM  00039
LectureKeyboard@compteur        cstackCOMRAM  00035
LectureKeyboard@key             cstackCOMRAM  00033
LectureKeyboard@ligne           cstackCOMRAM  0003B
LectureKeyboard@release         cstackCOMRAM  00037
LectureKeyboard@releaseTab      cstackCOMRAM  00013
LireLigne@ligne                 cstackCOMRAM  00001
_ActiveColonne                  text9         01C08
_AfficherTouche                 text11        016A4
_InitilizationKeyboard          text10        01E66
_LATDbits                       (abs)         00F8C
_LATEbits                       (abs)         00F8D
_LectureKeyboard                text7         00E58
_LireLigne                      text8         01982
_OSCCON                         (abs)         00FD3
_PORTEbits                      (abs)         00F84
_RPINR12_13                     (abs)         00E30
_RPOR22_23                      (abs)         00E1D
_RPOR24_25                      (abs)         00E1E
_SSP2BUF                        (abs)         00F03
_SSP2CON1                       (abs)         00F19
_SSP2CON3                       (abs)         00F39
_SSP2STAT                       (abs)         00F1A
_SSP2STATbits                   (abs)         00F1A
_TRISCbits                      (abs)         00F94
_TRISDbits                      (abs)         00F95
_TRISE                          (abs)         00F96
__CFG_BORV$                     (abs)         00003
__CFG_FOSC$FRC                  (abs)         00000
__CFG_IESO$OFF                  (abs)         00000
__CFG_STVREN$ON                 (abs)         00000
__CFG_WDTPS$32768               (abs)         00000
__CFG_XINST$OFF                 (abs)         00000
__HRAM                          (abs)         00000
__Habs1                         abs1          00000
__Hbank0                        bank0         00000
__Hbank1                        bank1         00000
__Hbank10                       bank10        00000
__Hbank11                       bank11        00000
__Hbank12                       bank12        00000
__Hbank13                       bank13        00000
__Hbank2                        bank2         00000
__Hbank3                        bank3         00000
__Hbank4                        bank4         00000
__Hbank5                        bank5         00000
__Hbank6                        bank6         00000
__Hbank7                        bank7         00000
__Hbank8                        bank8         00000
__Hbank9                        bank9         00000
__Hbigbss                       bigbss        00000
__Hbigdata                      bigdata       00000
__Hbigram                       bigram        00000
__Hbss                          bss           00000
__HbssBANK0                     bssBANK0      00000
__Hcinit                        cinit         00000
__Hclrtext                      clrtext       00000
__Hcomram                       comram        00000
__Hconfig                       config        20000
__Hconst                        const         00000
__HcstackCOMRAM                 cstackCOMRAM  00000
__Hdata                         data          00000
__Hfarbss                       farbss        00000
__Hfardata                      fardata       00000
__Hibigdata                     ibigdata      00000
__Hidata                        idata         00000
__Hidloc                        idloc         00000
__Hifardata                     ifardata      00000
__Hinit                         init          00004
__Hintcode                      intcode       00000
__Hintcode_body                 intcode_body  00000
__Hintcodelo                    intcodelo     00000
__Hintentry                     intentry      00000
__Hintret                       intret        00000
__Hintsave_regs                 intsave_regs  00000
__Hirdata                       irdata        00000
__Hjflash_buffer                jflash_buffer 1FBF8
__Hmediumconst                  mediumconst   00000
__HnvFARRAM                     nvFARRAM      00000
__Hnvbit                        nvbit         00000
__Hnvrram                       nvrram        00000
__Hparam                        rparam        00000
__Hpowerup                      powerup       00000
__Hram                          ram           00000
__Hramtop                       ramtop        00E00
__Hrbit                         rbit          00000
__Hrbss                         rbss          00000
__Hrdata                        rdata         00000
__Hreset_vec                    reset_vec     00000
__Hrparam                       rparam        00000
__Hsfr                          sfr           00000
__Hsmallconst                   smallconst    00E58
__Hspace_0                      (abs)         20000
__Hspace_1                      (abs)         000A0
__Hspace_2                      (abs)         00000
__Hstack                        stack         00000
__Hstruct                       struct        00000
__Htemp                         temp          00000
__Htext                         text          00000
__Htext0                        text0         00000
__Htext1                        text1         00000
__Htext10                       text10        00000
__Htext11                       text11        00000
__Htext12                       text12        00000
__Htext13                       text13        00000
__Htext14                       text14        00000
__Htext15                       text15        00000
__Htext16                       text16        00000
__Htext2                        text2         00000
__Htext3                        text3         00000
__Htext4                        text4         00000
__Htext5                        text5         00000
__Htext6                        text6         00000
__Htext7                        text7         00000
__Htext8                        text8         00000
__Htext9                        text9         00000
__LRAM                          (abs)         00001
__Labs1                         abs1          00000
__Lbank0                        bank0         00000
__Lbank1                        bank1         00000
__Lbank10                       bank10        00000
__Lbank11                       bank11        00000
__Lbank12                       bank12        00000
__Lbank13                       bank13        00000
__Lbank2                        bank2         00000
__Lbank3                        bank3         00000
__Lbank4                        bank4         00000
__Lbank5                        bank5         00000
__Lbank6                        bank6         00000
__Lbank7                        bank7         00000
__Lbank8                        bank8         00000
__Lbank9                        bank9         00000
__Lbigbss                       bigbss        00000
__Lbigdata                      bigdata       00000
__Lbigram                       bigram        00000
__Lbss                          bss           00000
__LbssBANK0                     bssBANK0      00000
__Lcinit                        cinit         00000
__Lclrtext                      clrtext       00000
__Lcomram                       comram        00000
__Lconfig                       config        1FFF0
__Lconst                        const         00000
__LcstackCOMRAM                 cstackCOMRAM  00000
__Ldata                         data          00000
__Lfarbss                       farbss        00000
__Lfardata                      fardata       00000
__Libigdata                     ibigdata      00000
__Lidata                        idata         00000
__Lidloc                        idloc         00000
__Lifardata                     ifardata      00000
__Linit                         init          00000
__Lintcode                      intcode       00000
__Lintcode_body                 intcode_body  00000
__Lintcodelo                    intcodelo     00000
__Lintentry                     intentry      00000
__Lintret                       intret        00000
__Lintsave_regs                 intsave_regs  00000
__Lirdata                       irdata        00000
__Ljflash_buffer                jflash_buffer 1FBF8
__Lmediumconst                  mediumconst   00000
__LnvFARRAM                     nvFARRAM      00000
__Lnvbit                        nvbit         00000
__Lnvrram                       nvrram        00000
__Lparam                        rparam        00000
__Lpowerup                      powerup       00000
__Lram                          ram           00000
__Lramtop                       ramtop        00E00
__Lrbit                         rbit          00000
__Lrbss                         rbss          00000
__Lrdata                        rdata         00000
__Lreset_vec                    reset_vec     00000
__Lrparam                       rparam        00000
__Lsfr                          sfr           00000
__Lsmallconst                   smallconst    00E00
__Lspace_0                      (abs)         00000
__Lspace_1                      (abs)         00000
__Lspace_2                      (abs)         00000
__Lstack                        stack         00000
__Lstruct                       struct        00000
__Ltemp                         temp          00000
__Ltext                         text          00000
__Ltext0                        text0         00000
__Ltext1                        text1         00000
__Ltext10                       text10        00000
__Ltext11                       text11        00000
__Ltext12                       text12        00000
__Ltext13                       text13        00000
__Ltext14                       text14        00000
__Ltext15                       text15        00000
__Ltext16                       text16        00000
__Ltext2                        text2         00000
__Ltext3                        text3         00000
__Ltext4                        text4         00000
__Ltext5                        text5         00000
__Ltext6                        text6         00000
__Ltext7                        text7         00000
__Ltext8                        text8         00000
__Ltext9                        text9         00000
__S0                            (abs)         20000
__S1                            (abs)         000A0
__S2                            (abs)         00000
___inthi_sp                     stack         00000
___intlo_sp                     stack         00000
___param_bank                   (abs)         00000
___rparam_used                  (abs)         00001
___sp                           stack         00000
__accesstop                     (abs)         00060
__activetblptr                  (abs)         00003
__end_of_ActiveColonne          text9         01C6E
__end_of_AfficherTouche         text11        01982
__end_of_InitilizationKeyboard  text10        01E72
__end_of_LectureKeyboard        text7         016A4
__end_of_LireLigne              text8         01A50
__end_of__initialization        cinit         01E60
__end_of_clearDisplay           text6         01DD0
__end_of_displayCtrl            text5         01CC4
__end_of_fliplr                 text16        01D1A
__end_of_initialisation_LCD     text2         01E54
__end_of_initialisation_PORT    text4         01D9C
__end_of_initialisation_SPI     text3         01DFC
__end_of_main                   text0         01B10
__end_of_moveCursor             text1         01C08
__end_of_putStringLCD           text12        01B9A
__end_of_putchLCD               text13        01D5C
__end_of_readBusyFlag           text14        01E1A
__end_of_spi_Send_Read          text15        01E38
__initialization                cinit         01E54
__mediumconst                   mediumconst   00000
__pbssBANK0                     bssBANK0      00060
__pcinit                        cinit         01E54
__pcstackCOMRAM                 cstackCOMRAM  00001
__psmallconst                   smallconst    00E00
__ptext0                        text0         01A50
__ptext1                        text1         01B9A
__ptext10                       text10        01E66
__ptext11                       text11        016A4
__ptext12                       text12        01B10
__ptext13                       text13        01D1A
__ptext14                       text14        01DFC
__ptext15                       text15        01E1A
__ptext16                       text16        01CC4
__ptext2                        text2         01E38
__ptext3                        text3         01DD0
__ptext4                        text4         01D5C
__ptext5                        text5         01C6E
__ptext6                        text6         01D9C
__ptext7                        text7         00E58
__ptext8                        text8         01982
__ptext9                        text9         01C08
__ramtop                        ramtop        00E00
__size_of_ActiveColonne         (abs)         00000
__size_of_AfficherTouche        (abs)         00000
__size_of_InitilizationKeyboard (abs)         00000
__size_of_LectureKeyboard       (abs)         00000
__size_of_LireLigne             (abs)         00000
__size_of_clearDisplay          (abs)         00000
__size_of_displayCtrl           (abs)         00000
__size_of_fliplr                (abs)         00000
__size_of_initialisation_LCD    (abs)         00000
__size_of_initialisation_PORT   (abs)         00000
__size_of_initialisation_SPI    (abs)         00000
__size_of_main                  (abs)         00000
__size_of_moveCursor            (abs)         00000
__size_of_putStringLCD          (abs)         00000
__size_of_putchLCD              (abs)         00000
__size_of_readBusyFlag          (abs)         00000
__size_of_spi_Send_Read         (abs)         00000
__smallconst                    smallconst    00E00
_clearDisplay                   text6         01D9C
_displayCtrl                    text5         01C6E
_fliplr                         text16        01CC4
_initialisation_LCD             text2         01E38
_initialisation_PORT            text4         01D5C
_initialisation_SPI             text3         01DD0
_main                           text0         01A50
_moveCursor                     text1         01B9A
_putStringLCD                   text12        01B10
_putchLCD                       text13        01D1A
_readBusyFlag                   text14        01DFC
_spi_Send_Read                  text15        01E1A
displayCtrl@BCD                 cstackCOMRAM  00006
displayCtrl@blink               cstackCOMRAM  00004
displayCtrl@cursor              cstackCOMRAM  00003
displayCtrl@display             cstackCOMRAM  00005
end_of_initialization           cinit         01E60
fliplr@input                    cstackCOMRAM  00003
intlevel0                       text          00000
intlevel1                       text          00000
intlevel2                       text          00000
intlevel3                       text          00000
main@F10946                     bssBANK0      00060
main@KeyBoard                   cstackCOMRAM  0003F
main@status                     cstackCOMRAM  0005F
moveCursor@address              cstackCOMRAM  00008
moveCursor@col                  cstackCOMRAM  00006
moveCursor@row                  cstackCOMRAM  00004
putStringLCD@i                  cstackCOMRAM  00009
putStringLCD@input              cstackCOMRAM  00005
putchLCD@input                  cstackCOMRAM  00004
readBusyFlag@retValue           cstackCOMRAM  00002
spi_Send_Read@byte              cstackCOMRAM  00001
stackhi                         (abs)         00DF9
stacklo                         (abs)         000A0
start                           init          00000
start_initialization            cinit         01E54


FUNCTION INFORMATION:

 *************** function _main *****************
 Defined at:
		line 5 in file "C:/Users/Sam/Desktop/UdeS/S5/Projet/Telecommande_P4.X/main.c"
 Parameters:    Size  Location     Type
		None
 Auto vars:     Size  Location     Type
  KeyBoard       32   62[COMRAM] int [4][4]
  data            5    0        unsigned char [5]
  i               2    0        int 
  status          1   94[COMRAM] unsigned char 
 Return value:  Size  Location     Type
                  1    wreg      void 
 Registers used:
		wreg, fsr0l, fsr0h, fsr1l, fsr1h, fsr2l, fsr2h, status,2, status,0, tblptrl, tblptrh, tblptru, prodl, prodh, cstack
 Tracked objects:
		On entry : 
		On exit  : 
		Unchanged: 
 Data sizes:     COMRAM   BANK0   BANK1   BANK2   BANK3   BANK4   BANK5   BANK6   BANK7   BANK8   BANK9  BANK10  BANK11  BANK12  BANK13
      Params:         0       0       0       0       0       0       0       0       0       0       0       0       0       0       0
      Locals:        33       0       0       0       0       0       0       0       0       0       0       0       0       0       0
      Temps:          2       0       0       0       0       0       0       0       0       0       0       0       0       0       0
      Totals:        35       0       0       0       0       0       0       0       0       0       0       0       0       0       0
Total ram usage:       35 bytes
 Hardware stack levels required when called:    5
 This function calls:
		_AfficherTouche
		_InitilizationKeyboard
		_LectureKeyboard
		_clearDisplay
		_initialisation_LCD
		_moveCursor
		_putStringLCD
 This function is called by:
		Startup code after reset
 This function uses a non-reentrant model


 *************** function _moveCursor *****************
 Defined at:
		line 78 in file "C:/Users/Sam/Desktop/UdeS/S5/Projet/Telecommande_P4.X/LCD_SPI.c"
 Parameters:    Size  Location     Type
  row             2    3[COMRAM] int 
  col             2    5[COMRAM] int 
 Auto vars:     Size  Location     Type
  address         1    7[COMRAM] unsigned char 
 Return value:  Size  Location     Type
                  1    wreg      void 
 Registers used:
		wreg, status,2, status,0, prodl, prodh, cstack
 Tracked objects:
		On entry : 
		On exit  : 
		Unchanged: 
 Data sizes:     COMRAM   BANK0   BANK1   BANK2   BANK3   BANK4   BANK5   BANK6   BANK7   BANK8   BANK9  BANK10  BANK11  BANK12  BANK13
      Params:         4       0       0       0       0       0       0       0       0       0       0       0       0       0       0
      Locals:         1       0       0       0       0       0       0       0       0       0       0       0       0       0       0
      Temps:          0       0       0       0       0       0       0       0       0       0       0       0       0       0       0
      Totals:         5       0       0       0       0       0       0       0       0       0       0       0       0       0       0
Total ram usage:        5 bytes
 Hardware stack levels used:    1
 Hardware stack levels required when called:    2
 This function calls:
		_fliplr
		_readBusyFlag
		_spi_Send_Read
 This function is called by:
		_main
		_clearRow
 This function uses a non-reentrant model


 *************** function _initialisation_LCD *****************
 Defined at:
		line 149 in file "C:/Users/Sam/Desktop/UdeS/S5/Projet/Telecommande_P4.X/LCD_SPI.c"
 Parameters:    Size  Location     Type
		None
 Auto vars:     Size  Location     Type
		None
 Return value:  Size  Location     Type
                  1    wreg      void 
 Registers used:
		wreg, status,2, status,0, cstack
 Tracked objects:
		On entry : 
		On exit  : 
		Unchanged: 
 Data sizes:     COMRAM   BANK0   BANK1   BANK2   BANK3   BANK4   BANK5   BANK6   BANK7   BANK8   BANK9  BANK10  BANK11  BANK12  BANK13
      Params:         0       0       0       0       0       0       0       0       0       0       0       0       0       0       0
      Locals:         0       0       0       0       0       0       0       0       0       0       0       0       0       0       0
      Temps:          0       0       0       0       0       0       0       0       0       0       0       0       0       0       0
      Totals:         0       0       0       0       0       0       0       0       0       0       0       0       0       0       0
Total ram usage:        0 bytes
 Hardware stack levels used:    1
 Hardware stack levels required when called:    3
 This function calls:
		_clearDisplay
		_displayCtrl
		_initialisation_PORT
		_initialisation_SPI
 This function is called by:
		_main
 This function uses a non-reentrant model


 *************** function _initialisation_SPI *****************
 Defined at:
		line 112 in file "C:/Users/Sam/Desktop/UdeS/S5/Projet/Telecommande_P4.X/LCD_SPI.c"
 Parameters:    Size  Location     Type
		None
 Auto vars:     Size  Location     Type
		None
 Return value:  Size  Location     Type
                  1    wreg      void 
 Registers used:
		wreg, status,2, status,0
 Tracked objects:
		On entry : 
		On exit  : 
		Unchanged: 
 Data sizes:     COMRAM   BANK0   BANK1   BANK2   BANK3   BANK4   BANK5   BANK6   BANK7   BANK8   BANK9  BANK10  BANK11  BANK12  BANK13
      Params:         0       0       0       0       0       0       0       0       0       0       0       0       0       0       0
      Locals:         0       0       0       0       0       0       0       0       0       0       0       0       0       0       0
      Temps:          0       0       0       0       0       0       0       0       0       0       0       0       0       0       0
      Totals:         0       0       0       0       0       0       0       0       0       0       0       0       0       0       0
Total ram usage:        0 bytes
 Hardware stack levels used:    1
 This function calls:
		Nothing
 This function is called by:
		_initialisation_LCD
 This function uses a non-reentrant model


 *************** function _initialisation_PORT *****************
 Defined at:
		line 134 in file "C:/Users/Sam/Desktop/UdeS/S5/Projet/Telecommande_P4.X/LCD_SPI.c"
 Parameters:    Size  Location     Type
		None
 Auto vars:     Size  Location     Type
		None
 Return value:  Size  Location     Type
                  1    wreg      void 
 Registers used:
		wreg, status,2, status,0
 Tracked objects:
		On entry : 
		On exit  : 
		Unchanged: 
 Data sizes:     COMRAM   BANK0   BANK1   BANK2   BANK3   BANK4   BANK5   BANK6   BANK7   BANK8   BANK9  BANK10  BANK11  BANK12  BANK13
      Params:         0       0       0       0       0       0       0       0       0       0       0       0       0       0       0
      Locals:         0       0       0       0       0       0       0       0       0       0       0       0       0       0       0
      Temps:          1       0       0       0       0       0       0       0       0       0       0       0       0       0       0
      Totals:         1       0       0       0       0       0       0       0       0       0       0       0       0       0       0
Total ram usage:        1 bytes
 Hardware stack levels used:    1
 This function calls:
		Nothing
 This function is called by:
		_initialisation_LCD
 This function uses a non-reentrant model


 *************** function _displayCtrl *****************
 Defined at:
		line 30 in file "C:/Users/Sam/Desktop/UdeS/S5/Projet/Telecommande_P4.X/LCD_SPI.c"
 Parameters:    Size  Location     Type
  display         1    wreg     unsigned char 
  cursor          1    2[COMRAM] unsigned char 
  blink           1    3[COMRAM] unsigned char 
 Auto vars:     Size  Location     Type
  display         1    4[COMRAM] unsigned char 
  BCD             1    5[COMRAM] unsigned char 
 Return value:  Size  Location     Type
                  1    wreg      void 
 Registers used:
		wreg, status,2, status,0, cstack
 Tracked objects:
		On entry : 
		On exit  : 
		Unchanged: 
 Data sizes:     COMRAM   BANK0   BANK1   BANK2   BANK3   BANK4   BANK5   BANK6   BANK7   BANK8   BANK9  BANK10  BANK11  BANK12  BANK13
      Params:         2       0       0       0       0       0       0       0       0       0       0       0       0       0       0
      Locals:         2       0       0       0       0       0       0       0       0       0       0       0       0       0       0
      Temps:          0       0       0       0       0       0       0       0       0       0       0       0       0       0       0
      Totals:         4       0       0       0       0       0       0       0       0       0       0       0       0       0       0
Total ram usage:        4 bytes
 Hardware stack levels used:    1
 Hardware stack levels required when called:    2
 This function calls:
		_readBusyFlag
		_spi_Send_Read
 This function is called by:
		_initialisation_LCD
 This function uses a non-reentrant model


 *************** function _clearDisplay *****************
 Defined at:
		line 18 in file "C:/Users/Sam/Desktop/UdeS/S5/Projet/Telecommande_P4.X/LCD_SPI.c"
 Parameters:    Size  Location     Type
		None
 Auto vars:     Size  Location     Type
		None
 Return value:  Size  Location     Type
                  1    wreg      void 
 Registers used:
		wreg, status,2, status,0, cstack
 Tracked objects:
		On entry : 
		On exit  : 
		Unchanged: 
 Data sizes:     COMRAM   BANK0   BANK1   BANK2   BANK3   BANK4   BANK5   BANK6   BANK7   BANK8   BANK9  BANK10  BANK11  BANK12  BANK13
      Params:         0       0       0       0       0       0       0       0       0       0       0       0       0       0       0
      Locals:         0       0       0       0       0       0       0       0       0       0       0       0       0       0       0
      Temps:          0       0       0       0       0       0       0       0       0       0       0       0       0       0       0
      Totals:         0       0       0       0       0       0       0       0       0       0       0       0       0       0       0
Total ram usage:        0 bytes
 Hardware stack levels used:    1
 Hardware stack levels required when called:    2
 This function calls:
		_readBusyFlag
		_spi_Send_Read
 This function is called by:
		_initialisation_LCD
		_main
 This function uses a non-reentrant model


 *************** function _LectureKeyboard *****************
 Defined at:
		line 31 in file "C:/Users/Sam/Desktop/UdeS/S5/Projet/Telecommande_P4.X/KeyBoard.c"
 Parameters:    Size  Location     Type
  KeyBoard        2    4[COMRAM] PTR int [4]
		 -> main@KeyBoard(32), 
 Auto vars:     Size  Location     Type
  releaseTab     32   18[COMRAM] int [4][4]
  ligne           2   58[COMRAM] int 
  colonne         2   56[COMRAM] int 
  release         2   54[COMRAM] int 
  compteur        2   52[COMRAM] int 
  key             2   50[COMRAM] int 
 Return value:  Size  Location     Type
                  1    wreg      void 
 Registers used:
		wreg, fsr1l, fsr1h, fsr2l, fsr2h, status,2, status,0, cstack
 Tracked objects:
		On entry : 
		On exit  : 
		Unchanged: 
 Data sizes:     COMRAM   BANK0   BANK1   BANK2   BANK3   BANK4   BANK5   BANK6   BANK7   BANK8   BANK9  BANK10  BANK11  BANK12  BANK13
      Params:         2       0       0       0       0       0       0       0       0       0       0       0       0       0       0
      Locals:        42       0       0       0       0       0       0       0       0       0       0       0       0       0       0
      Temps:         12       0       0       0       0       0       0       0       0       0       0       0       0       0       0
      Totals:        56       0       0       0       0       0       0       0       0       0       0       0       0       0       0
Total ram usage:       56 bytes
 Hardware stack levels used:    1
 Hardware stack levels required when called:    1
 This function calls:
		_ActiveColonne
		_LireLigne
 This function is called by:
		_main
 This function uses a non-reentrant model


 *************** function _LireLigne *****************
 Defined at:
		line 212 in file "C:/Users/Sam/Desktop/UdeS/S5/Projet/Telecommande_P4.X/KeyBoard.c"
 Parameters:    Size  Location     Type
  ligne           2    0[COMRAM] int 
 Auto vars:     Size  Location     Type
		None
 Return value:  Size  Location     Type
                  2    0[COMRAM] int 
 Registers used:
		wreg, status,2, status,0
 Tracked objects:
		On entry : 
		On exit  : 
		Unchanged: 
 Data sizes:     COMRAM   BANK0   BANK1   BANK2   BANK3   BANK4   BANK5   BANK6   BANK7   BANK8   BANK9  BANK10  BANK11  BANK12  BANK13
      Params:         2       0       0       0       0       0       0       0       0       0       0       0       0       0       0
      Locals:         0       0       0       0       0       0       0       0       0       0       0       0       0       0       0
      Temps:          2       0       0       0       0       0       0       0       0       0       0       0       0       0       0
      Totals:         4       0       0       0       0       0       0       0       0       0       0       0       0       0       0
Total ram usage:        4 bytes
 Hardware stack levels used:    1
 This function calls:
		Nothing
 This function is called by:
		_LectureKeyboard
 This function uses a non-reentrant model


 *************** function _ActiveColonne *****************
 Defined at:
		line 187 in file "C:/Users/Sam/Desktop/UdeS/S5/Projet/Telecommande_P4.X/KeyBoard.c"
 Parameters:    Size  Location     Type
  colonne         2    0[COMRAM] int 
 Auto vars:     Size  Location     Type
		None
 Return value:  Size  Location     Type
                  1    wreg      void 
 Registers used:
		wreg, status,2, status,0
 Tracked objects:
		On entry : 
		On exit  : 
		Unchanged: 
 Data sizes:     COMRAM   BANK0   BANK1   BANK2   BANK3   BANK4   BANK5   BANK6   BANK7   BANK8   BANK9  BANK10  BANK11  BANK12  BANK13
      Params:         2       0       0       0       0       0       0       0       0       0       0       0       0       0       0
      Locals:         0       0       0       0       0       0       0       0       0       0       0       0       0       0       0
      Temps:          2       0       0       0       0       0       0       0       0       0       0       0       0       0       0
      Totals:         4       0       0       0       0       0       0       0       0       0       0       0       0       0       0
Total ram usage:        4 bytes
 Hardware stack levels used:    1
 This function calls:
		Nothing
 This function is called by:
		_LectureKeyboard
 This function uses a non-reentrant model


 *************** function _InitilizationKeyboard *****************
 Defined at:
		line 19 in file "C:/Users/Sam/Desktop/UdeS/S5/Projet/Telecommande_P4.X/KeyBoard.c"
 Parameters:    Size  Location     Type
		None
 Auto vars:     Size  Location     Type
		None
 Return value:  Size  Location     Type
                  1    wreg      void 
 Registers used:
		None
 Tracked objects:
		On entry : 
		On exit  : 
		Unchanged: 
 Data sizes:     COMRAM   BANK0   BANK1   BANK2   BANK3   BANK4   BANK5   BANK6   BANK7   BANK8   BANK9  BANK10  BANK11  BANK12  BANK13
      Params:         0       0       0       0       0       0       0       0       0       0       0       0       0       0       0
      Locals:         0       0       0       0       0       0       0       0       0       0       0       0       0       0       0
      Temps:          0       0       0       0       0       0       0       0       0       0       0       0       0       0       0
      Totals:         0       0       0       0       0       0       0       0       0       0       0       0       0       0       0
Total ram usage:        0 bytes
 Hardware stack levels used:    1
 This function calls:
		Nothing
 This function is called by:
		_main
 This function uses a non-reentrant model


 *************** function _AfficherTouche *****************
 Defined at:
		line 118 in file "C:/Users/Sam/Desktop/UdeS/S5/Projet/Telecommande_P4.X/KeyBoard.c"
 Parameters:    Size  Location     Type
  KeyBoard        2   10[COMRAM] PTR int [4]
		 -> main@KeyBoard(32), 
 Auto vars:     Size  Location     Type
		None
 Return value:  Size  Location     Type
                  1    wreg      void 
 Registers used:
		wreg, fsr0l, fsr0h, fsr2l, fsr2h, status,2, status,0, tblptrl, tblptrh, tblptru, cstack
 Tracked objects:
		On entry : 
		On exit  : 
		Unchanged: 
 Data sizes:     COMRAM   BANK0   BANK1   BANK2   BANK3   BANK4   BANK5   BANK6   BANK7   BANK8   BANK9  BANK10  BANK11  BANK12  BANK13
      Params:         2       0       0       0       0       0       0       0       0       0       0       0       0       0       0
      Locals:         0       0       0       0       0       0       0       0       0       0       0       0       0       0       0
      Temps:          2       0       0       0       0       0       0       0       0       0       0       0       0       0       0
      Totals:         4       0       0       0       0       0       0       0       0       0       0       0       0       0       0
Total ram usage:        4 bytes
 Hardware stack levels used:    1
 Hardware stack levels required when called:    4
 This function calls:
		_putStringLCD
 This function is called by:
		_main
 This function uses a non-reentrant model


 *************** function _putStringLCD *****************
 Defined at:
		line 48 in file "C:/Users/Sam/Desktop/UdeS/S5/Projet/Telecommande_P4.X/LCD_SPI.c"
 Parameters:    Size  Location     Type
  input           2    4[COMRAM] PTR const unsigned char 
		 -> STR_21(6), STR_20(13), STR_19(14), putNumberLCD@stringAffichage(2), 
		 -> STR_18(2), STR_17(21), STR_16(2), STR_15(2), 
		 -> STR_14(2), STR_13(2), STR_12(2), STR_11(2), 
		 -> STR_10(2), STR_9(2), STR_8(2), STR_7(2), 
		 -> STR_6(2), STR_5(2), STR_4(2), STR_3(2), 
		 -> STR_2(2), STR_1(2), 
 Auto vars:     Size  Location     Type
  i               2    8[COMRAM] int 
 Return value:  Size  Location     Type
                  1    wreg      void 
 Registers used:
		wreg, fsr0l, fsr0h, status,2, status,0, tblptrl, tblptrh, tblptru, cstack
 Tracked objects:
		On entry : 
		On exit  : 
		Unchanged: 
 Data sizes:     COMRAM   BANK0   BANK1   BANK2   BANK3   BANK4   BANK5   BANK6   BANK7   BANK8   BANK9  BANK10  BANK11  BANK12  BANK13
      Params:         2       0       0       0       0       0       0       0       0       0       0       0       0       0       0
      Locals:         2       0       0       0       0       0       0       0       0       0       0       0       0       0       0
      Temps:          2       0       0       0       0       0       0       0       0       0       0       0       0       0       0
      Totals:         6       0       0       0       0       0       0       0       0       0       0       0       0       0       0
Total ram usage:        6 bytes
 Hardware stack levels used:    1
 Hardware stack levels required when called:    3
 This function calls:
		_putchLCD
 This function is called by:
		_AfficherTouche
		_main
		_clearRow
		_putNumberLCD
 This function uses a non-reentrant model


 *************** function _putchLCD *****************
 Defined at:
		line 57 in file "C:/Users/Sam/Desktop/UdeS/S5/Projet/Telecommande_P4.X/LCD_SPI.c"
 Parameters:    Size  Location     Type
  input           1    wreg     unsigned char 
 Auto vars:     Size  Location     Type
  input           1    3[COMRAM] unsigned char 
 Return value:  Size  Location     Type
                  1    wreg      void 
 Registers used:
		wreg, status,2, status,0, cstack
 Tracked objects:
		On entry : 
		On exit  : 
		Unchanged: 
 Data sizes:     COMRAM   BANK0   BANK1   BANK2   BANK3   BANK4   BANK5   BANK6   BANK7   BANK8   BANK9  BANK10  BANK11  BANK12  BANK13
      Params:         0       0       0       0       0       0       0       0       0       0       0       0       0       0       0
      Locals:         1       0       0       0       0       0       0       0       0       0       0       0       0       0       0
      Temps:          0       0       0       0       0       0       0       0       0       0       0       0       0       0       0
      Totals:         1       0       0       0       0       0       0       0       0       0       0       0       0       0       0
Total ram usage:        1 bytes
 Hardware stack levels used:    1
 Hardware stack levels required when called:    2
 This function calls:
		_fliplr
		_readBusyFlag
		_spi_Send_Read
 This function is called by:
		_putStringLCD
 This function uses a non-reentrant model


 *************** function _readBusyFlag *****************
 Defined at:
		line 93 in file "C:/Users/Sam/Desktop/UdeS/S5/Projet/Telecommande_P4.X/LCD_SPI.c"
 Parameters:    Size  Location     Type
		None
 Auto vars:     Size  Location     Type
  retValue        1    1[COMRAM] unsigned char 
 Return value:  Size  Location     Type
                  1    wreg      unsigned char 
 Registers used:
		wreg, status,2, status,0, cstack
 Tracked objects:
		On entry : 
		On exit  : 
		Unchanged: 
 Data sizes:     COMRAM   BANK0   BANK1   BANK2   BANK3   BANK4   BANK5   BANK6   BANK7   BANK8   BANK9  BANK10  BANK11  BANK12  BANK13
      Params:         0       0       0       0       0       0       0       0       0       0       0       0       0       0       0
      Locals:         1       0       0       0       0       0       0       0       0       0       0       0       0       0       0
      Temps:          0       0       0       0       0       0       0       0       0       0       0       0       0       0       0
      Totals:         1       0       0       0       0       0       0       0       0       0       0       0       0       0       0
Total ram usage:        1 bytes
 Hardware stack levels used:    1
 Hardware stack levels required when called:    1
 This function calls:
		_spi_Send_Read
 This function is called by:
		_clearDisplay
		_displayCtrl
		_putchLCD
		_moveCursor
 This function uses a non-reentrant model


 *************** function _spi_Send_Read *****************
 Defined at:
		line 11 in file "C:/Users/Sam/Desktop/UdeS/S5/Projet/Telecommande_P4.X/LCD_SPI.c"
 Parameters:    Size  Location     Type
  byte            1    wreg     unsigned char 
 Auto vars:     Size  Location     Type
  byte            1    0[COMRAM] unsigned char 
 Return value:  Size  Location     Type
                  1    wreg      unsigned char 
 Registers used:
		wreg, status,2
 Tracked objects:
		On entry : 
		On exit  : 
		Unchanged: 
 Data sizes:     COMRAM   BANK0   BANK1   BANK2   BANK3   BANK4   BANK5   BANK6   BANK7   BANK8   BANK9  BANK10  BANK11  BANK12  BANK13
      Params:         0       0       0       0       0       0       0       0       0       0       0       0       0       0       0
      Locals:         1       0       0       0       0       0       0       0       0       0       0       0       0       0       0
      Temps:          0       0       0       0       0       0       0       0       0       0       0       0       0       0       0
      Totals:         1       0       0       0       0       0       0       0       0       0       0       0       0       0       0
Total ram usage:        1 bytes
 Hardware stack levels used:    1
 This function calls:
		Nothing
 This function is called by:
		_clearDisplay
		_displayCtrl
		_putchLCD
		_moveCursor
		_readBusyFlag
 This function uses a non-reentrant model


 *************** function _fliplr *****************
 Defined at:
		line 69 in file "C:/Users/Sam/Desktop/UdeS/S5/Projet/Telecommande_P4.X/LCD_SPI.c"
 Parameters:    Size  Location     Type
  input           1    wreg     unsigned char 
 Auto vars:     Size  Location     Type
  input           1    2[COMRAM] unsigned char 
 Return value:  Size  Location     Type
                  1    wreg      unsigned char 
 Registers used:
		wreg, status,2, status,0
 Tracked objects:
		On entry : 
		On exit  : 
		Unchanged: 
 Data sizes:     COMRAM   BANK0   BANK1   BANK2   BANK3   BANK4   BANK5   BANK6   BANK7   BANK8   BANK9  BANK10  BANK11  BANK12  BANK13
      Params:         0       0       0       0       0       0       0       0       0       0       0       0       0       0       0
      Locals:         1       0       0       0       0       0       0       0       0       0       0       0       0       0       0
      Temps:          2       0       0       0       0       0       0       0       0       0       0       0       0       0       0
      Totals:         3       0       0       0       0       0       0       0       0       0       0       0       0       0       0
Total ram usage:        3 bytes
 Hardware stack levels used:    1
 This function calls:
		Nothing
 This function is called by:
		_putchLCD
		_moveCursor
 This function uses a non-reentrant model



MODULE INFORMATION

Module		Function		Class		Link	Load	Size
C:/Users/Sam/Desktop/UdeS/S5/Projet/Telecommande_P4.X/KeyBoard.c
		_ActiveColonne 		CODE           	1C08	0000	103
		_LectureKeyboard		CODE           	0E58	0000	2125
		_LireLigne     		CODE           	1982	0000	207
		_AfficherTouche		CODE           	16A4	0000	735
		_InitilizationKeyboard		CODE           	1E66	0000	13

C:/Users/Sam/Desktop/UdeS/S5/Projet/Telecommande_P4.X/KeyBoard.c estimated size: 3183

shared
		__initialization		CODE           	1E54	0000	13

shared estimated size: 13

C:/Users/Sam/Desktop/UdeS/S5/Projet/Telecommande_P4.X/LCD_SPI.c
		_readBusyFlag  		CODE           	1DFC	0000	31
		_displayCtrl   		CODE           	1C6E	0000	87
		_initialisation_SPI		CODE           	1DD0	0000	45
		_spi_Send_Read 		CODE           	1E1A	0000	31
		_putStringLCD  		CODE           	1B10	0000	139
		_putchLCD      		CODE           	1D1A	0000	67
		_fliplr        		CODE           	1CC4	0000	87
		_clearDisplay  		CODE           	1D9C	0000	53
		_moveCursor    		CODE           	1B9A	0000	111
		_initialisation_LCD		CODE           	1E38	0000	29
		_initialisation_PORT		CODE           	1D5C	0000	65

C:/Users/Sam/Desktop/UdeS/S5/Projet/Telecommande_P4.X/LCD_SPI.c estimated size: 745

C:/Users/Sam/Desktop/UdeS/S5/Projet/Telecommande_P4.X/main.c
		_main          		CODE           	1A50	0000	193

C:/Users/Sam/Desktop/UdeS/S5/Projet/Telecommande_P4.X/main.c estimated size: 193

