:020000040000FA
:040000002AEF0FF0E4
:100E00000020202020202020202020202020202002
:100E10002020202020004831392020205335202058
:100E20002050340054656C65636F6D6D616E646550
:100E300000546573743A002D0030003100320033E5
:100E400000350036003700380039004100420043C9
:100E50000044004500460000000E346E000E336E64
:100E600020EE80F010EE13F01F0EDBCFE3FFE8065C
:100E7000FCE2000E386E000E376E000E366E000E6D
:100E8000356E000E3A6E010E396E3ABE51EF07F024
:100E90003A5009E1050E395CD8A051EF07F053EF45
:100EA00007F057EF07F0DBEF07F0DBEF07F039C093
:100EB00001F03AC002F004EC0EF0000E3C6E010EA0
:100EC0003B6E3CBE6DEF07F03C5009E1050E3B5C0C
:100ED000D8A06DEF07F06FEF07F073EF07F0C5EFE5
:100EE00007F0C5EF07F03BC001F03CC002F0C1ECD9
:100EF0000CF0F80E076EFF0E086E3BC009F03CC008
:100F00000AF0D89009360A36D89009360A36D890B1
:100F100009360A360750092608500A22FE0E0B6EC3
:100F2000FF0E0C6E39C00DF03AC00EF0D8900D36A1
:100F30000E360B500D260C500E2205C00FF006C0C9
:100F400010F00D500F260E50102209500F24D96EAC
:100F50000A501020DA6E01C0DEFF02C0DDFF010E74
:100F60003B243B6E000E3C203C6E3CBEC1EF07F0C4
:100F70003C5009E1050E3B5CD8A0C1EF07F0C3EF80
:100F800007F073EF07F0C5EF07F0010E3924396E53
:100F9000000E3A203A6E3ABED7EF07F03A5009E118
:100FA000050E395CD8A0D7EF07F0D9EF07F057EF5F
:100FB00007F0DBEF07F0000E3A6E010E396E3ABE15
:100FC000EBEF07F03A5009E1050E395CD8A0EBEFE2
:100FD00007F0EDEF07F0F1EF07F06FEF08F06FEFBC
:100FE00008F0000E3C6E010E3B6E3CBE01EF08F0B7
:100FF0003C5009E1050E3B5CD8A001EF08F003EF7F
:1010000008F007EF08F059EF08F059EF08F0F80E74
:10101000076EFF0E086E3BC009F03CC00AF0D89086
:1010200009360A36D89009360A36D89009360A3673
:101030000750092608500A22FE0E0B6EFF0E0C6E9A
:1010400039C00DF03AC00EF0D8900D360E360B5068
:101050000D260C500E2205C00FF006C010F00D50EA
:101060000F260E50102209500F24D96E0A5010205E
:10107000DA6EDECF11F0DDCF12F033501124336E73
:1010800034501220346E010E3B243B6E000E3C2087
:101090003C6E3CBE55EF08F03C5009E1050E3B5C50
:1010A000D8A055EF08F057EF08F007EF08F059EF18
:1010B00008F0010E3924396E000E3A203A6E3ABE1D
:1010C0006BEF08F03A5009E1050E395CD8A06BEFE0
:1010D00008F06DEF08F0F1EF07F06FEF08F0330460
:1010E0003410D8B476EF08F078EF08F008EF09F084
:1010F000000E3A6E010E396E3ABE88EF08F03A5093
:1011000009E1050E395CD8A088EF08F08AEF08F0F5
:101110008EEF08F04AEF0BF04AEF0BF0000E3C6E3A
:10112000010E3B6E3CBE9EEF08F03C5009E1050EFF
:101130003B5CD8A09EEF08F0A0EF08F0A4EF08F009
:10114000F0EF08F0F0EF08F0F80E076EFF0E086EF3
:101150003BC009F03CC00AF0D89009360A36D89056
:1011600009360A36D89009360A360750092608503B
:101170000A22FE0E0B6EFF0E0C6E39C00DF03AC047
:101180000EF0D8900D360E360B500D260C500E2258
:1011900005C00FF006C010F00D500F260E501022A3
:1011A00009500F24D96E0A501020DA6E000EDE6E40
:1011B000000EDD6E010E3B243B6E000E3C203C6EAB
:1011C0003CBEECEF08F03C5009E1050E3B5CD8A0BA
:1011D000ECEF08F0EEEF08F0A4EF08F0F0EF08F005
:1011E000010E3924396E000E3A203A6E3ABE02EFF3
:1011F00009F03A5009E1050E395CD8A002EF09F078
:1012000004EF09F08EEF08F04AEF0BF04AEF0BF015
:10121000000E386E010E376E39EF0BF0000E386E8F
:10122000010E376E000E3A6E010E396E3ABE22EF95
:1012300009F03A5009E1050E395CD8A022EF09F017
:1012400024EF09F028EF09F0E8EF09F0E8EF09F0E2
:1012500039C001F03AC002F004EC0EF0000E3C6E12
:10126000010E3B6E3CBE3EEF09F03C5009E1050E1D
:101270003B5CD8A03EEF09F040EF09F044EF09F0E5
:10128000D2EF09F0D2EF09F03BC001F03CC002F010
:10129000C1EC0CF0F80E076EFF0E086E3BC009F0B3
:1012A0003CC00AF0D89009360A36D89009360A367A
:1012B000D89009360A360750092608500A22FE0E31
:1012C0000B6EFF0E0C6E39C00DF03AC00EF0D890C8
:1012D0000D360E360B500D260C500E22130E0F6ECF
:1012E000000E106E0D500F260E50102209500F24C4
:1012F000D96E0A501020DA6E01C0DEFF02C0DDFF99
:10130000F80E076EFF0E086E3BC009F03CC00AF0F5
:10131000D89009360A36D89009360A36D890093658
:101320000A360750092608500A22FE0E0B6EFF0EE1
:101330000C6E39C00DF03AC00EF0D8900D360E3656
:101340000B500D260C500E22130E0F6E000E106E59
:101350000D500F260E50102209500F24D96E0A503E
:101360001020DA6EDECF11F0DDCF12F037501124ED
:10137000376E38501220386E010E3B243B6E000E43
:101380003C203C6E3CBECEEF09F03C5009E1050E1E
:101390003B5CD8A0CEEF09F0D0EF09F044EF09F0A4
:1013A000D2EF09F0010E3924396E000E3A203A6E60
:1013B0003ABEE4EF09F03A5009E1050E395CD8A0D5
:1013C000E4EF09F0E6EF09F028EF09F0E8EF09F0A3
:1013D000FF0E3724376EFF0E3820386E38BEFAEF16
:1013E00009F0385009E1020E375CD8A0FAEF09F095
:1013F000FCEF09F08CEF0AF0000E3A6E010E396E28
:101400003ABE0CEF0AF03A5009E1050E395CD8A05B
:101410000CEF0AF00EEF0AF012EF0AF08CEF0AF070
:101420008CEF0AF0000E3C6E010E3B6E3CBE22EFCC
:101430000AF03C5009E1050E3B5CD8A022EF0AF00F
:1014400024EF0AF028EF0AF074EF0AF074EF0AF0C4
:10145000F80E076EFF0E086E3BC009F03CC00AF0A4
:10146000D89009360A36D89009360A36D890093607
:101470000A360750092608500A22FE0E0B6EFF0E90
:101480000C6E39C00DF03AC00EF0D8900D360E3605
:101490000B500D260C500E2205C00FF006C010F0A8
:1014A0000D500F260E50102209500F24D96E0A50ED
:1014B0001020DA6E000EDE6E000EDD6E010E3B2493
:1014C0003B6E000E3C203C6E3CBE70EF0AF03C5080
:1014D00009E1050E3B5CD8A070EF0AF072EF0AF04C
:1014E00028EF0AF074EF0AF0010E3924396E000E6D
:1014F0003A203A6E3ABE86EF0AF03A5009E1050EFC
:10150000395CD8A086EF0AF088EF0AF012EF0AF0F3
:101510008CEF0AF08CEF0AF0820E076EDE0EE82EDA
:10152000FED7072EFCD7010E3524356E000E36206F
:10153000366E1E0E35183610D8A4A1EF0AF0A3EFB0
:101540000AF039EF0BF0000E386E000E376E000E09
:101550003A6E010E396E3ABEB7EF0AF03A5009E121
:10156000050E395CD8A0B7EF0AF0B9EF0AF0BDEF6D
:101570000AF039EF0BF039EF0BF0000E3C6E010E64
:101580003B6E3CBECDEF0AF03C5009E1050E3B5CE2
:10159000D8A0CDEF0AF0CFEF0AF0D3EF0AF01FEF9B
:1015A0000BF01FEF0BF0F80E076EFF0E086E3BC03E
:1015B00009F03CC00AF0D89009360A36D8900936AE
:1015C0000A36D89009360A360750092608500A22EA
:1015D000FE0E0B6EFF0E0C6E39C00DF03AC00EF011
:1015E000D8900D360E360B500D260C500E2205C02D
:1015F0000FF006C010F00D500F260E5010220950AB
:101600000F24D96E0A501020DA6E000EDE6E000E26
:10161000DD6E010E3B243B6E000E3C203C6E3CBE5A
:101620001BEF0BF03C5009E1050E3B5CD8A01BEF13
:101630000BF01DEF0BF0D3EF0AF01FEF0BF0010ED4
:101640003924396E000E3A203A6E3ABE31EF0BF073
:101650003A5009E1050E395CD8A031EF0BF033EFB9
:101660000BF0BDEF0AF039EF0BF039EF0BF039EF6B
:101670000BF038BE46EF0BF0385006E13704D8B017
:1016800044EF0BF046EF0BF00EEF09F04AEF0BF0D2
:101690004AEF0BF0820E076EDE0EE82EFED7072E05
:1016A000FCD712000BC0D9FF0CC0DAFFDE04DE103D
:1016B000D8A45DEF0BF05FEF0BF067EF0BF03B0E84
:1016C000056E0E0E066E88EC0DF067EF0BF020EE47
:1016D00002F00B50D9260C50DA22DE04DE10D8A41A
:1016E00074EF0BF076EF0BF07EEF0BF03D0E056E16
:1016F0000E0E066E88EC0DF07EEF0BF020EE04F07F
:101700000B50D9260C50DA22DE04DE10D8A48BEF61
:101710000BF08DEF0BF095EF0BF03F0E056E0E0EFC
:10172000066E88EC0DF095EF0BF020EE06F00B50F6
:10173000D9260C50DA22DE04DE10D8A4A2EF0BF07A
:10174000A4EF0BF0ACEF0BF04B0E056E0E0E066E19
:1017500088EC0DF0ACEF0BF020EE08F00B50D92622
:101760000C50DA22DE04DE10D8A4B9EF0BF0BBEF88
:101770000BF0C3EF0BF0220E056E0E0E066E88EC1A
:101780000DF0C3EF0BF020EE0AF00B50D9260C50F1
:10179000DA22DE04DE10D8A4D0EF0BF0D2EF0BF08B
:1017A000DAEF0BF0410E056E0E0E066E88EC0DF0B2
:1017B000DAEF0BF020EE0CF00B50D9260C50DA22A9
:1017C000DE04DE10D8A4E7EF0BF0E9EF0BF0F1EF49
:1017D0000BF0430E056E0E0E066E88EC0DF0F1EF69
:1017E0000BF020EE0EF00B50D9260C50DA22DE045E
:1017F000DE10D8A4FEEF0BF000EF0CF008EF0CF0B9
:101800004D0E056E0E0E066E88EC0DF008EF0CF016
:1018100020EE10F00B50D9260C50DA22DE04DE1038
:10182000D8A415EF0CF017EF0CF01FEF0CF0450EDD
:10183000056E0E0E066E88EC0DF01FEF0CF020EE1C
:1018400012F00B50D9260C50DA22DE04DE10D8A498
:101850002CEF0CF02EEF0CF036EF0CF0470E056E6F
:101860000E0E066E88EC0DF036EF0CF020EE14F044
:101870000B50D9260C50DA22DE04DE10D8A443EF38
:101880000CF045EF0CF04DEF0CF0490E056E0E0E0E
:10189000066E88EC0DF04DEF0CF020EE16F00B50BC
:1018A000D9260C50DA22DE04DE10D8A45AEF0CF050
:1018B0005CEF0CF064EF0CF04F0E056E0E0E066E32
:1018C00088EC0DF064EF0CF020EE18F00B50D926E8
:1018D0000C50DA22DE04DE10D8A471EF0CF073EFA6
:1018E0000CF07BEF0CF0550E056E0E0E066E88ECBC
:1018F0000DF07BEF0CF020EE1AF00B50D9260C50B7
:10190000DA22DE04DE10D8A488EF0CF08AEF0CF0A7
:1019100092EF0CF0390E056E0E0E066E88EC0DF08F
:1019200092EF0CF020EE1CF00B50D9260C50DA226E
:10193000DE04DE10D8A49FEF0CF0A1EF0CF0A9EFAD
:101940000CF0530E056E0E0E066E88EC0DF0A9EF2E
:101950000CF020EE1EF00B50D9260C50DA22DE04DB
:10196000DE10D8A4B6EF0CF0B8EF0CF0C0EF0CF01E
:10197000510E056E0E0E066E88EC0DF0C0EF0CF0E9
:10198000120009EF0DF084A8C8EF0CF0CBEF0CF0BB
:10199000010ECCEF0CF0000E016E026A27EF0DF085
:1019A00027EF0DF027EF0DF084AAD9EF0CF0DCEF54
:1019B0000CF0010EDDEF0CF0000E016E026A27EF55
:1019C0000DF027EF0DF027EF0DF084ACEAEF0CF0EF
:1019D000EDEF0CF0010EEEEF0CF0000E016E026A5E
:1019E00027EF0DF027EF0DF027EF0DF084AEFBEFA2
:1019F0000CF0FEEF0CF0010EFFEF0CF0000E016E8C
:101A0000026A27EF0DF027EF0DF027EF0DF027EF1B
:101A10000DF001C003F002C004F00450000AD8B475
:101A200014EF0DF027EF0DF00350010AD8B4C3EF07
:101A30000CF0030AD8B4D4EF0CF0010AD8B4E5EFE7
:101A40000CF0070AD8B4F6EF0CF027EF0DF01200F7
:101A5000000E5F6E20EE60F010EE3FF01F0EDBCF49
:101A6000E3FFE806FCE21CEC0FF033EC0FF0CEECE9
:101A70000EF00B0E3E6E260E3D6E5E0EE82EFED76D
:101A80003D2EFCD73E2EFAD7160E056E0E0E066EB4
:101A900088EC0DF0000E056E010E046E000E076E50
:101AA000000E066ECDEC0DF0240E056E0E0E066EC9
:101AB00088EC0DF0000E056E020E046E000E076E2F
:101AC000000E066ECDEC0DF0310E056E0E0E066E9C
:101AD00088EC0DF0000E056E030E046E000E076E0E
:101AE000000E066ECDEC0DF076EF0DF03F0E056E9C
:101AF000000E066E2CEC07F03F0E0B6E000E0C6E07
:101B000052EC0BF076EF0DF076EF0DF000EF00F0F9
:101B1000000E0A6E000E096EABEF0DF009500524A1
:101B2000076E0A500620086E07C0F6FF08C0F7FFD0
:101B3000000EF86E0D0EF76403D00800F55005D0C6
:101B4000F6CFE9FFF7CFEAFFEF508DEC0EF0094A30
:101B50000A2AABEF0DF009500524076E0A50062043
:101B6000086E07C0F6FF08C0F7FF000EF86E0D0EF6
:101B7000F76403D00800F55005D0F6CFE9FFF7CFA2
:101B8000EAFFEF500009D8A4C8EF0DF0CAEF0DF03E
:101B90008EEF0DF0CCEF0DF012000450140DF35049
:101BA0000624086E05BEDEEF0DF0055009E1020EB9
:101BB000045CD8A0DEEF0DF0E0EF0DF0E4EF0DF0E7
:101BC000180E0826E4EF0DF0085062EC0EF0086ED7
:101BD000ECEF0DF0ECEF0DF0FEEC0EF00009D8A4E8
:101BE000F4EF0DF0F6EF0DF0ECEF0DF08C96F80E33
:101BF0000DEC0FF00850F00B0DEC0FF00838F00B67
:101C000010090DEC0FF0120018EF0EF0FE0E966E9C
:101C100036EF0EF0FD0E966E36EF0EF0FB0E966E62
:101C200036EF0EF0F70E966E36EF0EF036EF0EF042
:101C300001C003F002C004F00450000AD8B423EF3E
:101C40000EF036EF0EF00350010AD8B406EF0EF096
:101C5000030AD8B40AEF0EF0010AD8B40EEF0EF062
:101C6000070AD8B412EF0EF036EF0EF01200056E30
:101C700004C006F0D890063603500626D8900636E3
:101C800005500626D8900636062A063AF00E0616A5
:101C90004CEF0EF04CEF0EF0FEEC0EF00009D8A465
:101CA00054EF0EF056EF0EF04CEF0EF08C96F80E4F
:101CB0000DEC0FF006500DEC0FF0000E0DEC0FF0D8
:101CC0008C861200036E03C001F00F0E0116013A5C
:101CD000F00E011603380F0B0F0B0110036E03C03B
:101CE00001F0330E0116D8900136D890013603402A
:101CF000E8423F0B330B0110036E03C001F0550E99
:101D00000116D8900134026ED8900330550B0210A2
:101D1000036E03508CEF0EF01200046E045062EC60
:101D20000EF0046E96EF0EF096EF0EF0FEEC0EF055
:101D30000009D8A49EEF0EF0A0EF0EF096EF0EF083
:101D40008C96FA0E0DEC0FF00450F00B0DEC0FF02A
:101D50000438F00B0DEC0FF08C861200D350700994
:101D6000D36E959895949596958294908C8600F074
:101D7000560E016EB60EE82EFED7012EFCD7560E7B
:101D8000016EB60EE82EFED7012EFCD7560E016E60
:101D9000B60EE82EFED7012EFCD71200D2EF0EF0C1
:101DA000D2EF0EF0FEEC0EF00009D8A4DAEF0EF040
:101DB000DCEF0EF0D2EF0EF08C96F80E0DEC0FF07B
:101DC000800E0DEC0FF0000E0DEC0FF08C86120063
:101DD0000E011E85F40E1E17050E1D13F50E1D17A0
:101DE000500E30135F0E3017F10E0F011917310E20
:101DF00019131A8F1A9D8F0E391712008C96FC0E2C
:101E00000DEC0FF0000E0DEC0FF0026E8C8600D082
:101E10000250010B0CEF0FF01200016E01C003FF26
:101E200012EF0FF00F011AA118EF0FF01AEF0FF0D9
:101E300012EF0FF003511200AEEC0EF0E8EC0EF0D2
:101E4000CEEC0EF0010E036E000E046E010E37ECA8
:101E50000EF0120000EE60F0400EEE6AE806FDE1C2
:101E6000000128EF0DF096688D968D948D928D90DF
:021E700012005E
:020000040001F9
:10FFF000A0F728FF33F0FFF703FFFFFF1DF0F8F332
:00000001FF
